:100000000C9436000C945E000C945E000C945E0020
:100010000C945E000C945E000C9461060C945E00DF
:100020000C945E000C945E000C945E000C945E00D8
:100030000C945E000C945E000C945E000C945E00C8
:100040000C9417060C945E000C94E5050C94BF0507
:100050000C945E000C945E000C945E000C945E00A8
:100060000C945E000C945E000207DE0611241FBE95
:10007000CFEFD8E0DEBFCDBF12E0A0E0B1E0E8EA0C
:10008000FCE102C005900D92AC37B107D9F724E02E
:10009000ACE7B2E001C01D92A53EB207E1F710E067
:1000A000C5E3D0E004C02197FE010E943B0CC4339D
:1000B000D107C9F70E9458070C94470E0C94000012
:1000C000AF92BF92CF92DF92EF92FF920F931F9366
:1000D000CF93DF936C017B018B01040F151FEB01A4
:1000E0005E01AE18BF08C017D10759F06991D6015B
:1000F000ED91FC910190F081E02DC6010995892BCD
:1001000079F7C501DF91CF911F910F91FF90EF908B
:10011000DF90CF90BF90AF900895FC01448155814E
:10012000608171818DE992E00C946000FC01538D37
:10013000448D252F30E0842F90E0821B930B5417C1
:1001400010F0CF96089501970895FC01918D828D4E
:10015000981761F0A28DAE0FBF2FB11D5D968C91E7
:10016000928D9F5F9F73928F90E008958FEF9FEF26
:100170000895FC01918D828D981731F0828DE80FE2
:10018000F11D858D90E008958FEF9FEF0895FC019C
:10019000918D228D892F90E0805C9F4F821B910969
:1001A0008F73992708958DE992E00E94C70021E09E
:1001B000892B09F420E0822F089580E090E0892BBC
:1001C00029F00E94D30081110C9400000895FC01D5
:1001D000A48DA80FB92FB11DA35ABF4F2C91848DA8
:1001E00090E001968F739927848FA689B7892C9305
:1001F000A089B1898C91837080648C93938D848D58
:10020000981306C00288F389E02D80818F7D80835A
:100210000895EF92FF920F931F93CF93DF93EC011A
:1002200081E0888F9B8D8C8D98131AC0E889F9899D
:10023000808185FF15C09FB7F894EE89FF896083A0
:10024000E889F98980818370806480839FBF81E021
:1002500090E0DF91CF911F910F91FF90EF90089563
:10026000F62E0B8D10E00F5F1F4F0F731127E02E3E
:100270008C8D8E110CC00FB607FCFACFE889F98976
:10028000808185FFF5CFCE010E94E700F1CFEB8D95
:10029000EC0FFD2FF11DE35AFF4FF0829FB7F8944A
:1002A0000B8FEA89FB8980818062CFCFCF93DF9368
:1002B000EC01888D8823B9F0AA89BB89E889F9897E
:1002C0008C9185FD03C0808186FD0DC00FB607FCB3
:1002D000F7CF8C9185FFF2CF808185FFEDCFCE01E6
:1002E0000E94E700E9CFDF91CF9108953FB7F894DE
:1002F0008091860290918702A0918802B091890234
:1003000026B5A89B05C02F3F19F00196A11DB11D70
:100310003FBFBA2FA92F982F8827BC01CD01620FAC
:10032000711D811D911D42E0660F771F881F991F67
:100330004A95D1F70895FC0132968E5E9E4F108249
:100340003196E817F907D9F708957F928F929F9217
:10035000AF92BF92CF92DF92EF92FF920F931F93D3
:10036000CF93DF9300D0CDB7DEB77A836983DA010C
:10037000FC01EE5EFE4F7080029628E0729EF00156
:100380001124E80FF91FFD90ED90DD90CD90BD9008
:10039000AD909D908D907D916D915D914D913D9130
:1003A0002D911D910C91082519252A253B254C25B9
:1003B0005D256E257F2500FB7795679557954795B9
:1003C000379527951795079577F900FB77956795EA
:1003D00057954795379527951795079577F900FB1A
:1003E000779567955795479537952795179507956D
:1003F00077F902900F24F290FE24E290ED24D2903F
:10040000DC24C290CB24B290BA24A290A92492906A
:100410009824802C901AA10AB20AC30AD40AE50AC9
:10042000F60A870A7A9409F0BECFA981BA81FD92B3
:10043000ED92DD92CD92BD92AD929D928D927D9383
:100440006D935D934D933D932D931D930C930F905E
:100450000F90DF91CF911F910F91FF90EF90DF9060
:10046000CF90BF90AF909F908F907F9008956F92A4
:100470007F928F929F92AF92BF92CF92DF92EF9234
:10048000FF920F931F93CF93DF9300D0CDB7DEB7CA
:100490007A836983DA013C0122E0620E711C8E5E70
:1004A0009E4FFC018081F301FD90ED90DD90CD9099
:1004B000BD90AD909D908D907D916D915D914D9190
:1004C0003D912D911D910C91900EA11EB21EC31E47
:1004D000D41EE51EF61E871E0190092491909A24D1
:1004E000A190AB24B190BC24C190CD24D190DE2446
:1004F000E190EF24F190F824802C000F111F221FAF
:10050000331F441F551F661F771F011D000F111F4A
:10051000221F331F441F551F661F771F011D000F29
:10052000111F221F331F441F551F661F771F011DF8
:10053000082519252A253B254C255D256E257F2577
:100540008A9509F0C1CFA981BA81FD92ED92DD9221
:10055000CD92BD92AD929D928D927D936D935D9360
:100560004D933D932D931D930C930F900F90DF911E
:10057000CF911F910F91FF90EF90DF90CF90BF90A0
:10058000AF909F908F907F906F9008956F927F9221
:100590008F929F92AF92BF92CF92DF92EF92FF9293
:1005A0000F931F93CF93DF93CDB7DEB7A2970FB60C
:1005B000F894DEBF0FBECDBFFC014032510509F0FB
:1005C000AAC088E189A394E0DF01AE5EBE4F8EE150
:1005D000890F8C93935E9AA33296DB01A40FB51F0B
:1005E000CE0101963C010E9001920E9001920E9068
:1005F00001920E9001920E9001920E9001920E9037
:1006000001920E90019238975F01F30189A00E903C
:1006100001928A94E1F7D301F501662479A0992724
:10062000019111912191319141915191619171917A
:10063000A60DB11DFD908D909D90AD90BD90CD907B
:10064000DD90ED90A619B1091897800E911EA21E9B
:10065000B31EC41ED51EE61EF71E8926A70DB11DAA
:100660008D929D92AD92BD92CD92DD92ED92FD92D2
:10067000A719B1091897000F111F221F331F441F1C
:10068000551F661F771F011D000F111F221F331FEB
:10069000441F551F661F771F011D000F111F221FCA
:1006A000331F441F551F661F771F011D082519257D
:1006B0002A253B254C255D256E257F250193119329
:1006C00021933193419351936193719388E0680E24
:1006D000780E8FE1682278228AA09395981509F008
:1006E000A7CF80E21D928A95E9F781E0A2960FB626
:1006F000F894DEBF0FBECDBFDF91CF911F910F9158
:10070000FF90EF90DF90CF90BF90AF909F908F9031
:100710007F906F9008954831510521F480E189A3BD
:1007200093E052CF80E04031510501F788E089A382
:1007300092E04ACF80E290E0089580E190E0089551
:10074000FC0132968E5E9E4F108231968E179F0767
:10075000D9F70895FC0101900020E9F73197AF0126
:10076000481B590BBC018DE992E00C946000CF93BB
:10077000DF930E948D00EC0180E491E00E94AA03C7
:100780008C0F9D1FDF91CF910895CF93DF93682F3A
:100790008DE992E00E940901EC0180E491E00E9461
:1007A000AA038C0F9D1FDF91CF9108958F929F9286
:1007B000AF92BF920F931F93CF93DF93CDB7DEB766
:1007C000A1970FB6F894DEBF0FBECDBF19A242307D
:1007D00008F44AE08E010F5D1F4F842E912CB12C3E
:1007E000A12CA50194010E940A0CE62FB901CA01AF
:1007F000EA30F4F4E05DD801EE938D01232B242B35
:10080000252B79F790E080E0109719F0CD010E9438
:10081000AA03A1960FB6F894DEBF0FBECDBFDF913D
:10082000CF911F910F91BF90AF909F908F9008959F
:10083000E95CE1CFCF92DF92EF92FF92CF93DF930B
:100840006B017C016DE28DE992E00E940901EC01EF
:1008500066277727CB016C197D098E099F094AE02D
:100860000E94D6038C0F9D1FDF91CF91FF90EF90D8
:10087000DF90CF9008950C94AA03CF93DF930E944A
:10088000AA03EC0180E491E00E94AA038C0F9D1F53
:10089000DF91CF910895CF93DF93BC0190E080E08A
:1008A0004AE00E94D603EC0180E491E00E94AA0392
:1008B0008C0F9D1FDF91CF910895CF93DF93BC01E3
:1008C000990F880B990B97FF0CC00E941A04EC013A
:1008D00080E491E00E94AA038C0F9D1FDF91CF91CD
:1008E00008954AE00E94D603F2CF0F931F93CF934F
:1008F000DF934115510541F0FC010481158101157B
:10090000110539F4FB011082DF91CF911F910F91F6
:100910000895415051094017510708F48A01EB012D
:10092000FC0160817181A801CE010E94380EC00FC8
:10093000D11F1882E9CF0E94230E0F931F93CF93EC
:10094000DF93EC0188819981009759F02A813B81DE
:100950002617370730F081E0DF91CF911F910F917B
:1009600008958B016F5F7F4F0E94660D009759F0CD
:10097000998388831B830A832C813D81232B59F71C
:10098000FC011082E8CF80E0E7CFEF92FF920F9357
:100990001F93CF93DF936115710541F480E0DF91E0
:1009A000CF911F910F91FF90EF9008954115510540
:1009B000B1F07B01EC010C811D81040F151FB80102
:1009C0000E949D04882351F3288139818C819D8167
:1009D000B701820F931F0E94310E1D830C8381E0AB
:1009E000DECFCF93DF93EC0188819981009711F0DE
:1009F0000E94DD0C198218821D821C821B821A82C1
:100A0000DF91CF910895CF93DF93EC01FB0101902B
:100A10000020E9F73197AF01461B570B0E94C50430
:100A2000811103C0CE010E94F104CE01DF91CF916C
:100A30000895CF93DF93EC01FB01448155816081E0
:100A400071810E94C504811103C0CE010E94F1048E
:100A5000CE01DF91CF910895EF92FF920F931F93F4
:100A6000CF93DF93EC017B018A01BA010E949D04C0
:100A700081110BC0CE010E94F104CE01DF91CF9114
:100A80001F910F91FF90EF9008951D830C83B70184
:100A9000888199810E94310EF0CFEF92FF920F93DF
:100AA0001F93CF93DF93CDB7DEB762970FB6F8945D
:100AB000DEBF0FBECDBF8C01CB01F80111821082C9
:100AC00013821282158214824AE09E012F5F3F4FEB
:100AD0007901B9010E946C0BF70101900020E9F740
:100AE0003197AF014E195F09B701C8010E942C056B
:100AF00062960FB6F894DEBF0FBECDBFDF91CF91E7
:100B00001F910F91FF90EF900895CF93DF93EC0129
:100B1000FB018617970749F06081718161157105A6
:100B200041F0448155810E942C05CE01DF91CF9187
:100B300008950E94F104F9CFFC0111821082138202
:100B4000128215821482FB0101900020E9F731978F
:100B5000AF01461B570B0C942C05FC018081918141
:100B6000009711F00C94DD0C0895CF93DF93EC0106
:100B70000E94A003CE01DF91CF910C94DD0C1F9257
:100B80000F920FB60F9211242F933F934F935F93C1
:100B90006F937F938F939F93AF93BF93EF93FF9345
:100BA0008DE992E00E94E700FF91EF91BF91AF9134
:100BB0009F918F917F916F915F914F913F912F9175
:100BC0000F900FBE0F901F9018951F920F920FB6A7
:100BD0000F9211242F938F939F93EF93FF93E091A4
:100BE000AD02F091AE028081E091B302F091B402C7
:100BF00082FD1BC090818091B6028F5F8F73209120
:100C0000B702821741F0E091B602F0E0E356FD4FE3
:100C1000958F8093B602FF91EF919F918F912F91C5
:100C20000F900FBE0F901F9018958081F4CF1F92E8
:100C30000F920FB60F9211242F933F938F939F9390
:100C4000AF93BF938091820290918302A09184021E
:100C5000B09185023091810223E0230F2D3758F5A2
:100C60000196A11DB11D2093810280938202909371
:100C70008302A0938402B0938502809186029091B2
:100C80008702A0918802B09189020196A11DB11D31
:100C90008093860290938702A0938802B093890282
:100CA000BF91AF919F918F913F912F910F900FBE68
:100CB0000F901F90189526E8230F0296A11DB11DD5
:100CC000D2CF1F920F920FB60F9211242F934F93F2
:100CD0005F936F937F938F939F93AF93BF93209175
:100CE000840080917D0290917E02A0917F02B0915C
:100CF0008002820F911DA11DB11D80937D029093F2
:100D00007E02A0937F02B093800280917D02909139
:100D10007E02A0917F02B091800240917D025091AD
:100D20007E0260917F02709180022AE0880F991FF5
:100D3000AA1FBB1F2A95D1F7840F951FA61FB71FA7
:100D400080937D0290937E02A0937F02B0938002F5
:100D500080917D0290917E02A0917F02B0918002ED
:100D600040917D0250917E0260917F0270918002DD
:100D700026E0B695A795979587952A95D1F784276C
:100D80009527A627B72780937D0290937E02A09394
:100D90007F02B093800280917C028F5F80937C02FF
:100DA000BF91AF919F918F917F916F915F914F9183
:100DB0002F910F900FBE0F901F9018958AE393E02C
:100DC0000E94A003F894A89584B7877F84BF809180
:100DD0006000886180936000109260007894EDE478
:100DE000F4E01082319684E0ED38F807D1F780E422
:100DF00090E02DEC34E0F901E81BF90B108201972B
:100E0000D1F70895EDE9F2E01382128288EE93E0C3
:100E1000A0E0B0E084839583A683B7838EE191E060
:100E20009183808385EC90E09587848784EC90E0C3
:100E30009787868780EC90E0918B808B81EC90E0A7
:100E4000938B828B82EC90E0958B848B86EC90E088
:100E5000978B868B118E128E138E148EEDECF4E030
:100E600010828181807880628F7781831092CF0495
:100E70001092D0041092D1041092D20480E89EEE19
:100E8000A6E3B0E08093D3049093D404A093D50458
:100E9000B093D6041092DF041092E00480E391E056
:100EA00090933B0380933A0380E280934C0408952F
:100EB000CF93DF93CDB7DEB7EE970FB6F894DEBFD2
:100EC0000FBECDBF789484B5826084BD84B5816047
:100ED00084BD85B5826085BD85B5816085BD809105
:100EE0006E00816080936E0010928100809181007D
:100EF0008260809381008091810081608093810075
:100F0000809180008160809380008091B100846036
:100F10008093B1008091B00081608093B000809197
:100F20007A00846080937A0080917A008260809356
:100F30007A0080917A00816080937A0080917A00B3
:100F4000806880937A001092C100E091AD02F09128
:100F5000AE0282E08083E091A902F091AA021082A1
:100F6000E091AB02F091AC028FEC80831092B5025D
:100F7000E091B102F091B20286E08083E091AF028D
:100F8000F091B002808180618083E091AF02F091A6
:100F9000B002808188608083E091AF02F091B0025E
:100FA000808180688083E091AF02F091B0028081FF
:100FB0008F7D80832DB63EB60E94140B6B017C01A1
:100FC0000E94140B4B015C010E94140B24E030E0E2
:100FD00040E050E00E94A10B6A5F7F4F8F4F9F4F10
:100FE000CE0101960E944D05C501B4012FE030E00D
:100FF00040E050E00E94A10B675E7F4F8F4F9F4FF4
:10100000CE0141960E944D05C701B60128EE33E09E
:1010100040E050E00E94A10BCE0181960E944D0558
:1010200060919B0270919C02CE0187960E944D05B3
:1010300063E471E0CE018D960E949C05BE01695D5E
:101040007F4FCE018D960E94190562E571E00E94E6
:101050000305BE016F5D7F4F0E94190560E571E0D9
:101060000E940305BE016F5E7F4F0E94190560E577
:1010700071E00E940305BE016F5F7F4F0E9419055A
:101080006AE571E00E9403051AAE19AE1CAE1BAEF4
:101090001EAE1DAEBC01CE01C9960E948505CE01D3
:1010A0008D960E94AD05CE0187960E94AD05CE01BA
:1010B00081960E94AD05CE0141960E94AD05CE01FC
:1010C00001960E94AD0588E891E00E943B04609182
:1010D0009B0270919C02072E000C880B990B97FFC6
:1010E0004EC00E941A0488E891E00E943D04CE019F
:1010F000C9960E94B7038DEA91E00E943B046DAD52
:101100007EAD90E080E04AE00E94D60383EC91E05F
:101110000E943B048DAD9EAD8F7099270E944B04B9
:101120008DAD9EAD8F709927892B69F110E000E09D
:101130008DAD9EAD8F70992701970817190718F587
:101140001A8219821C821B821E821D82BE01675C6C
:101150007F4FCE0101960E9485056FED71E0CE01B3
:1011600001960E940305BC01CE01C9960E94850527
:10117000CE0101960E94AD050F5F1F4FD9CF4AE007
:101180000E94D603B0CF4DAC5EAC8DB79EB784192C
:1011900095090FB6F8949EBF0FBE8DBFEDB7FEB791
:1011A00031963F01A201BF01CE01C9960E9475048C
:1011B0008DEA91E00E943B04C2010E945D0457FE4B
:1011C00003C0FFE04F0E511C34E0559447943A950C
:1011D000E1F781EE91E00E943B04C2010E945D04B0
:1011E00062E471E0CE01C3960E949C0510E000E02D
:1011F000D12CC12CC414D5040CF0A9C05301A00EED
:10120000B11ECE0141964C01F12CE12CF50161910A
:101210005F01F40161934F0170E090E080E04AE0EB
:101220000E94D60385EF91E00E943B04C701800F26
:10123000911F2DAD3EAD8217930728F4E9ADFAADAD
:10124000309709F081C010928A02EAE8F2E08081CA
:101250000E94C503FFEFEF1AFF0A20E1E216F10436
:10126000A9F640E150E060E071E08AE393E00E947B
:10127000C602AE014F5E5F4F6BE872E08AE393E017
:101280000E94370289EF91E00E943D0462E471E020
:10129000CE0101960E949C052BE8E22E22E0F22E60
:1012A0005701F70161917F0170E090E080E04AE032
:1012B0000E94D60385EF91E00E943B04F5018081F6
:1012C0000E94C503F7013197808189A31AA241E0EA
:1012D00050E0BE016F5D7F4FCE0101960E94C504B4
:1012E000FBE9EF16F2E0FF06D9F6CE0101960E9467
:1012F000B7031AA219A21CA21BA21EA21DA2BE0104
:101300006D5C7F4FCE0181960E948505BE016F5FA7
:101310007F4FCE0181960E941905BC01CE01C39674
:101320000E948505CE0181960E94AD05CE010196F1
:101330000E94AD0580E292E00E943D042FEFC21AA8
:10134000D20A005F1F4F56CFE80FF91F80CF82E40B
:1013500092E00E943B04CE01C3960E948D0081E57D
:1013600092E00E943B048FA998AD0E944B044FA9C4
:1013700058AD8DB79EB7841B950B0FB6F8949EBFE2
:101380000FBE8DBFEDB7FEB731963F01BF01CE0155
:10139000C3960E94750462E471E0CE018D960E94AE
:1013A0009C0510E000E0D12CC12CC414D5040CF035
:1013B00093C04301800E911ECE0101965C01F12C79
:1013C000E12CF40161914F01F50161935F0170E03F
:1013D00090E080E04AE00E94D60385EF91E00E9411
:1013E0003B04C701800F911F2FA938AD82179307C7
:1013F00028F4EBA9FCA9309709F06BC010928A027F
:10140000EAE8F2E080810E94C503FFEFEF1AFF0ACD
:1014100020E1E216F104A9F6AE014F5F5F4F6BE8E1
:1014200072E08AE393E00E94A5011AA219A21CA20D
:101430001BA21EA21DA250E040E062E471E0CE01BA
:1014400081960E942C059BE8E92E92E0F92EF70187
:1014500081917F018FA318A641E050E0BE01695D34
:101460007F4FCE0181960E94C5048BE992E08E15D4
:101470009F0569F7CE0181960E94B70318A61FA2A7
:101480001AA619A61CA61BA6BE01635D7F4FCE013E
:1014900087960E948505BE016F5D7F4FCE018796BE
:1014A0000E941905BC01CE018D960E948505CE01D2
:1014B00087960E94AD05CE0181960E94AD0580E21F
:1014C00092E00E943D049FEFC91AD90A005F1F4FA6
:1014D0006CCFE80FF91F96CF8AE692E00E943B049A
:1014E000CE018D960E948D0081E592E00E943B0422
:1014F00089A99AA90E944B0480919B0290919C0219
:10150000019690939C0280939B020E9476014B016E
:101510005C0180E1C82E87E2D82EE12CF12C0E94DC
:101520007601681979098A099B09683E734081052B
:101530009105A8F3E1E0CE1AD108E108F108F8EE30
:101540008F0EF3E09F1EA11CB11CC114D104E10455
:10155000F10429F7CE018D960E94AD05CE01C39608
:101560000E94AD05CE01C9960E94AD050FB6F89454
:101570003EBE0FBE2DBE80E090E0892B09F41ACD4F
:101580000E94D300882309F415CD0E94000012CDDB
:101590008F929F92AF92BF92CF92DF92EF92FF9283
:1015A000CF93DF93EC01688179818A819B816115FA
:1015B00071058105910521F464E279ED8BE597E0F1
:1015C0002DE133EF41E050E00E94A10B49015A01A7
:1015D0009B01AC01A7EAB1E40E94C00B6B017C0146
:1015E000ACEEB4EFA50194010E94CE0BC60ED71E3F
:1015F000E81EF91EF7FE06C081E0C81AD108E1080E
:1016000080E8F80AC882D982EA82FB82C701B60163
:101610009F77DF91CF91FF90EF90DF90CF90BF90B9
:10162000AF909F908F9008958F929F92AF92BF92AC
:10163000CF92DF92EF92FF926091100170911101B1
:101640008091120190911301611571058105910539
:1016500021F464E279ED8BE597E02DE133EF41E091
:1016600050E00E94A10B49015A019B01AC01A7EA7D
:10167000B1E40E94C00B6B017C01ACEEB4EFA5019C
:1016800094010E94CE0BC60ED71EE81EF91EF7FE6F
:1016900006C081E0C81AD108E10880E8F80AC092C3
:1016A0001001D0921101E0921201F0921301C701D2
:1016B000B6019F77FF90EF90DF90CF90BF90AF90F3
:1016C0009F908F9008956093100170931101809303
:1016D0001201909313010895BB274A3031F49923E6
:1016E00022F4BDE2909581959F4F0C94780BBB2717
:1016F000FB015527AA27880F991FAA1FA41710F0CE
:10170000A41B83955051B9F7A05DAA3308F0A95DD9
:10171000A193009779F7B111B1931192CB010C9479
:10172000910BDC01FC01672F71917723E1F7329770
:1017300004C07C916D9370836291AE17BF07C8F3AC
:101740000895052E97FB1EF400940E94B80B57FDD8
:1017500007D00E940A0C07FC03D04EF40C94B80B7F
:1017600050954095309521953F4F4F4F5F4F0895CD
:1017700090958095709561957F4F8F4F9F4F0895FD
:101780000E942C0CA59F900DB49F900DA49F800DDE
:10179000911D11240895B7FF0C94C00B0E94C00B3B
:1017A000821B930B08952F923F924F925F926F92FC
:1017B0007F928F929F92AF92BF92CF92DF92EF92E1
:1017C000FF920F931F93CF93DF93CDB7DEB7CA1B62
:1017D000DB0B0FB6F894DEBF0FBECDBF09942A888D
:1017E000398848885F846E847D848C849B84AA8435
:1017F000B984C884DF80EE80FD800C811B81AA81C2
:10180000B981CE0FD11D0FB6F894DEBF0FBECDBF8C
:10181000ED010895A1E21A2EAA1BBB1BFD010DC00C
:10182000AA1FBB1FEE1FFF1FA217B307E407F50790
:1018300020F0A21BB30BE40BF50B661F771F881F6C
:10184000991F1A9469F760957095809590959B0102
:10185000AC01BD01CF010895A29FB001B39FC001AB
:10186000A39F700D811D1124911DB29F700D811DCC
:101870001124911D0895EE0FFF1F0590F491E02DA6
:1018800009940F931F93CF93DF938230910510F447
:1018900082E090E0E091E304F091E40430E020E0A5
:1018A000B0E0A0E0309799F42115310509F44AC061
:1018B000281B390B24303105D8F58A819B816115AD
:1018C000710589F1FB0193838283FE0111C0408180
:1018D00051810281138148175907E0F048175907D1
:1018E00099F4109761F012960C93129713961C932B
:1018F0003296CF01DF91CF911F910F910895009300
:10190000E3041093E404F4CF2115310551F042179C
:10191000530738F0A901DB019A01BD01DF01F8018D
:10192000C1CFEF01F9CF9093E4048093E304CDCFCE
:10193000FE01E20FF31F8193919322503109398305
:101940002883D7CF2091E1043091E204232B41F486
:1019500020911601309117013093E2042093E104A5
:1019600020911401309115012115310541F42DB755
:101970003EB74091180150911901241B350BE0919D
:10198000E104F091E204E217F307A0F42E1B3F0BF1
:101990002817390778F0AC014E5F5F4F24173507E1
:1019A00048F04E0F5F1F5093E2044093E10481938F
:1019B00091939FCFF0E0E0E09CCFCF93DF9300972F
:1019C000E9F0FC01329713821282A091E304B091F6
:1019D000E404ED0130E020E01097A1F42081318192
:1019E000820F931F2091E1043091E20428173907F8
:1019F00009F061C0F093E204E093E104DF91CF913C
:101A00000895EA01CE17DF07E8F54A815B819E0160
:101A100041155105B1F7E901FB83EA8349915991D9
:101A2000C40FD51FEC17FD0761F4808191810296E8
:101A3000840F951FE90199838883828193819B8319
:101A40008A83F0E0E0E012968D919C9113970097C5
:101A5000B9F52D913C911197CD010296820F931FFC
:101A60002091E1043091E2042817390739F63097C4
:101A700051F51092E4041092E304B093E204A093B1
:101A8000E104BCCFD383C28340815181840F951F71
:101A9000C817D90761F44E5F5F4F88819981480F5D
:101AA000591F518340838A819B81938382832115AF
:101AB000310509F0B0CFF093E404E093E3049ECF46
:101AC000FD01DC01C0CF13821282D7CFB0E0A0E0CD
:101AD000ECE6FDE00C94D50B8C01009751F4CB01A2
:101AE0000E94410C8C01C801CDB7DEB7E0E10C9437
:101AF000F10BFC01E60FF71F9C0122503109E217A0
:101B0000F30708F49DC0D901CD91DC911197C61758
:101B1000D70798F0C530D10530F3CE01049786176A
:101B2000970708F3C61BD70B2297C193D1936D93E8
:101B30007C93CF010E94DD0CD6CF5B01AC1ABD0AAD
:101B40004C018C0E9D1EA091E304B091E404512C35
:101B5000412CF12CE12C109731F58091E10490910A
:101B6000E2048815990509F05CC04616570608F08E
:101B700058C08091140190911501009741F48DB7E0
:101B80009EB74091180150911901841B950BE817DD
:101B9000F90708F055C0F093E204E093E104F9017D
:101BA00071836083A0CF8D919C91119712966C9058
:101BB000129713967C901397A815B90559F56C01E7
:101BC00042E0C40ED11CCA14DB0420F1AC014A1956
:101BD0005B09DA011296159780F062827382518355
:101BE0004083D9016D937C93E114F10471F0D70126
:101BF0001396FC93EE93129776CF22968C0F9D1F2F
:101C0000F90191838083F301EFCFF093E404E09333
:101C1000E30469CF4816590608F42C017D01D3016D
:101C20009ACFCB010E94410C7C01009749F0AE0194
:101C3000B8010E94280EC8010E94DD0C870153CF15
:101C400010E000E050CF81E090E0F8940C94470E53
:101C5000FB01DC0102C001900D9241505040D8F7C9
:101C60000895FB01DC0101900D920020E1F7089539
:101C7000FB01DC014150504048F001900D920020E2
:101C8000C9F701C01D9241505040E0F7089510E09F
:101C9000C5E3D0E004C0FE010E943B0C2196C63390
:081CA000D107C9F7F894FFCF4A
:101CA8000F0E0D0C0B0A09080706050403020100B4
:101CB800010000000000E5048000000000000901A8
:101CC800600096005601C700A500B900000000009A
:101CD800A003B5059D039A03C6023702A5019B011F
:101CE8000D0A00313030372C32333A35323A303140
:101CF8002C002C432C462C522C002C32333A3532F3
:101D08003A30312C33372E323331343433342C38A3
:101D1800302E34323634343334332C3432322E3697
:101D28003433342C372C30002A2A2A2A2A2A2A2A01
:101D38002A2A2A2A2A2A2A2A2A2A2A2A2A2A2A2AFB
:101D48002A2A2A2A2A2A2A2A2A2A2A2A004461747A
:101D580061205061636B6574204C656E6774682000
:101D68003A2000202C20446174615061636B6574D3
:101D78004C656E6774682025203136203A20002F84
:101D8800004E756D626572206F6620626C6F636BC2
:101D980073203A2000202C20002D2D2D2D2D2D2DA7
:101DA8002D2D2D2D2D2D2D436970686572732D2DC8
:101DB8002D2D2D2D2D2D2D2D2D2D2D2D2D2D2D0078
:101DC8002D2D2D2D2D2D2D2D2D2D2D2D2D2D2D2D3B
:101DD8002D2D2D2D2D2D2D2D2D2D2D2D2D2D2D2D2B
:101DE8002D004369706865722054657874203A2024
:101DF80000202C204C656E677468206F662043694C
:101E080070686572205465787400446563727974EB
:0C1E180065642054657874203A200000B6
:00000001FF
